{
  "_format": "hh-sol-artifact-1",
  "contractName": "CCTRedd",
  "sourceName": "contracts/CCTRedd.sol",
  "abi": [
    {
      "inputs": [
        {
          "internalType": "address",
          "name": "admin",
          "type": "address"
        }
      ],
      "stateMutability": "nonpayable",
      "type": "constructor"
    },
    {
      "inputs": [],
      "name": "AccessControlBadConfirmation",
      "type": "error"
    },
    {
      "inputs": [
        {
          "internalType": "address",
          "name": "account",
          "type": "address"
        },
        {
          "internalType": "bytes32",
          "name": "neededRole",
          "type": "bytes32"
        }
      ],
      "name": "AccessControlUnauthorizedAccount",
      "type": "error"
    },
    {
      "inputs": [
        {
          "internalType": "address",
          "name": "spender",
          "type": "address"
        },
        {
          "internalType": "uint256",
          "name": "allowance",
          "type": "uint256"
        },
        {
          "internalType": "uint256",
          "name": "needed",
          "type": "uint256"
        }
      ],
      "name": "ERC20InsufficientAllowance",
      "type": "error"
    },
    {
      "inputs": [
        {
          "internalType": "address",
          "name": "sender",
          "type": "address"
        },
        {
          "internalType": "uint256",
          "name": "balance",
          "type": "uint256"
        },
        {
          "internalType": "uint256",
          "name": "needed",
          "type": "uint256"
        }
      ],
      "name": "ERC20InsufficientBalance",
      "type": "error"
    },
    {
      "inputs": [
        {
          "internalType": "address",
          "name": "approver",
          "type": "address"
        }
      ],
      "name": "ERC20InvalidApprover",
      "type": "error"
    },
    {
      "inputs": [
        {
          "internalType": "address",
          "name": "receiver",
          "type": "address"
        }
      ],
      "name": "ERC20InvalidReceiver",
      "type": "error"
    },
    {
      "inputs": [
        {
          "internalType": "address",
          "name": "sender",
          "type": "address"
        }
      ],
      "name": "ERC20InvalidSender",
      "type": "error"
    },
    {
      "inputs": [
        {
          "internalType": "address",
          "name": "spender",
          "type": "address"
        }
      ],
      "name": "ERC20InvalidSpender",
      "type": "error"
    },
    {
      "anonymous": false,
      "inputs": [
        {
          "indexed": true,
          "internalType": "address",
          "name": "owner",
          "type": "address"
        },
        {
          "indexed": true,
          "internalType": "address",
          "name": "spender",
          "type": "address"
        },
        {
          "indexed": false,
          "internalType": "uint256",
          "name": "value",
          "type": "uint256"
        }
      ],
      "name": "Approval",
      "type": "event"
    },
    {
      "anonymous": false,
      "inputs": [
        {
          "indexed": true,
          "internalType": "address",
          "name": "titular",
          "type": "address"
        },
        {
          "indexed": false,
          "internalType": "uint256",
          "name": "quantidade",
          "type": "uint256"
        },
        {
          "indexed": false,
          "internalType": "string",
          "name": "motivo",
          "type": "string"
        },
        {
          "indexed": false,
          "internalType": "uint256",
          "name": "id",
          "type": "uint256"
        }
      ],
      "name": "CreditoAposentado",
      "type": "event"
    },
    {
      "anonymous": false,
      "inputs": [
        {
          "indexed": true,
          "internalType": "string",
          "name": "cpa_id",
          "type": "string"
        },
        {
          "indexed": false,
          "internalType": "string",
          "name": "periodo",
          "type": "string"
        },
        {
          "indexed": false,
          "internalType": "bytes32",
          "name": "hash_mrv",
          "type": "bytes32"
        },
        {
          "indexed": false,
          "internalType": "uint256",
          "name": "quantidade",
          "type": "uint256"
        }
      ],
      "name": "LoteMintado",
      "type": "event"
    },
    {
      "anonymous": false,
      "inputs": [
        {
          "indexed": true,
          "internalType": "bytes32",
          "name": "role",
          "type": "bytes32"
        },
        {
          "indexed": true,
          "internalType": "bytes32",
          "name": "previousAdminRole",
          "type": "bytes32"
        },
        {
          "indexed": true,
          "internalType": "bytes32",
          "name": "newAdminRole",
          "type": "bytes32"
        }
      ],
      "name": "RoleAdminChanged",
      "type": "event"
    },
    {
      "anonymous": false,
      "inputs": [
        {
          "indexed": true,
          "internalType": "bytes32",
          "name": "role",
          "type": "bytes32"
        },
        {
          "indexed": true,
          "internalType": "address",
          "name": "account",
          "type": "address"
        },
        {
          "indexed": true,
          "internalType": "address",
          "name": "sender",
          "type": "address"
        }
      ],
      "name": "RoleGranted",
      "type": "event"
    },
    {
      "anonymous": false,
      "inputs": [
        {
          "indexed": true,
          "internalType": "bytes32",
          "name": "role",
          "type": "bytes32"
        },
        {
          "indexed": true,
          "internalType": "address",
          "name": "account",
          "type": "address"
        },
        {
          "indexed": true,
          "internalType": "address",
          "name": "sender",
          "type": "address"
        }
      ],
      "name": "RoleRevoked",
      "type": "event"
    },
    {
      "anonymous": false,
      "inputs": [
        {
          "indexed": true,
          "internalType": "address",
          "name": "from",
          "type": "address"
        },
        {
          "indexed": true,
          "internalType": "address",
          "name": "to",
          "type": "address"
        },
        {
          "indexed": false,
          "internalType": "uint256",
          "name": "value",
          "type": "uint256"
        }
      ],
      "name": "Transfer",
      "type": "event"
    },
    {
      "inputs": [],
      "name": "DEFAULT_ADMIN_ROLE",
      "outputs": [
        {
          "internalType": "bytes32",
          "name": "",
          "type": "bytes32"
        }
      ],
      "stateMutability": "view",
      "type": "function"
    },
    {
      "inputs": [],
      "name": "MINTER_ROLE",
      "outputs": [
        {
          "internalType": "bytes32",
          "name": "",
          "type": "bytes32"
        }
      ],
      "stateMutability": "view",
      "type": "function"
    },
    {
      "inputs": [
        {
          "internalType": "address",
          "name": "owner",
          "type": "address"
        },
        {
          "internalType": "address",
          "name": "spender",
          "type": "address"
        }
      ],
      "name": "allowance",
      "outputs": [
        {
          "internalType": "uint256",
          "name": "",
          "type": "uint256"
        }
      ],
      "stateMutability": "view",
      "type": "function"
    },
    {
      "inputs": [
        {
          "internalType": "uint256",
          "name": "",
          "type": "uint256"
        }
      ],
      "name": "aposentadorias",
      "outputs": [
        {
          "internalType": "address",
          "name": "titular",
          "type": "address"
        },
        {
          "internalType": "uint256",
          "name": "quantidade",
          "type": "uint256"
        },
        {
          "internalType": "string",
          "name": "motivo",
          "type": "string"
        },
        {
          "internalType": "uint256",
          "name": "aposentado_em",
          "type": "uint256"
        }
      ],
      "stateMutability": "view",
      "type": "function"
    },
    {
      "inputs": [
        {
          "internalType": "address",
          "name": "spender",
          "type": "address"
        },
        {
          "internalType": "uint256",
          "name": "value",
          "type": "uint256"
        }
      ],
      "name": "approve",
      "outputs": [
        {
          "internalType": "bool",
          "name": "",
          "type": "bool"
        }
      ],
      "stateMutability": "nonpayable",
      "type": "function"
    },
    {
      "inputs": [
        {
          "internalType": "address",
          "name": "account",
          "type": "address"
        }
      ],
      "name": "balanceOf",
      "outputs": [
        {
          "internalType": "uint256",
          "name": "",
          "type": "uint256"
        }
      ],
      "stateMutability": "view",
      "type": "function"
    },
    {
      "inputs": [],
      "name": "decimals",
      "outputs": [
        {
          "internalType": "uint8",
          "name": "",
          "type": "uint8"
        }
      ],
      "stateMutability": "pure",
      "type": "function"
    },
    {
      "inputs": [
        {
          "internalType": "bytes32",
          "name": "role",
          "type": "bytes32"
        }
      ],
      "name": "getRoleAdmin",
      "outputs": [
        {
          "internalType": "bytes32",
          "name": "",
          "type": "bytes32"
        }
      ],
      "stateMutability": "view",
      "type": "function"
    },
    {
      "inputs": [
        {
          "internalType": "bytes32",
          "name": "role",
          "type": "bytes32"
        },
        {
          "internalType": "address",
          "name": "account",
          "type": "address"
        }
      ],
      "name": "grantRole",
      "outputs": [],
      "stateMutability": "nonpayable",
      "type": "function"
    },
    {
      "inputs": [
        {
          "internalType": "bytes32",
          "name": "role",
          "type": "bytes32"
        },
        {
          "internalType": "address",
          "name": "account",
          "type": "address"
        }
      ],
      "name": "hasRole",
      "outputs": [
        {
          "internalType": "bool",
          "name": "",
          "type": "bool"
        }
      ],
      "stateMutability": "view",
      "type": "function"
    },
    {
      "inputs": [
        {
          "internalType": "bytes32",
          "name": "",
          "type": "bytes32"
        }
      ],
      "name": "lotes",
      "outputs": [
        {
          "internalType": "string",
          "name": "cpa_id",
          "type": "string"
        },
        {
          "internalType": "string",
          "name": "periodo",
          "type": "string"
        },
        {
          "internalType": "bytes32",
          "name": "hash_mrv",
          "type": "bytes32"
        },
        {
          "internalType": "string",
          "name": "vcu_id",
          "type": "string"
        },
        {
          "internalType": "uint256",
          "name": "emitido_em",
          "type": "uint256"
        }
      ],
      "stateMutability": "view",
      "type": "function"
    },
    {
      "inputs": [
        {
          "internalType": "string",
          "name": "cpa_id",
          "type": "string"
        }
      ],
      "name": "lotesDeCPA",
      "outputs": [
        {
          "internalType": "bytes32[]",
          "name": "",
          "type": "bytes32[]"
        }
      ],
      "stateMutability": "view",
      "type": "function"
    },
    {
      "inputs": [
        {
          "internalType": "string",
          "name": "",
          "type": "string"
        },
        {
          "internalType": "uint256",
          "name": "",
          "type": "uint256"
        }
      ],
      "name": "lotesPorCPA",
      "outputs": [
        {
          "internalType": "bytes32",
          "name": "",
          "type": "bytes32"
        }
      ],
      "stateMutability": "view",
      "type": "function"
    },
    {
      "inputs": [
        {
          "internalType": "address",
          "name": "destinatario",
          "type": "address"
        },
        {
          "internalType": "string",
          "name": "cpa_id",
          "type": "string"
        },
        {
          "internalType": "string",
          "name": "periodo",
          "type": "string"
        },
        {
          "internalType": "bytes32",
          "name": "hash_mrv",
          "type": "bytes32"
        },
        {
          "internalType": "uint256",
          "name": "quantidade",
          "type": "uint256"
        }
      ],
      "name": "mintLote",
      "outputs": [],
      "stateMutability": "nonpayable",
      "type": "function"
    },
    {
      "inputs": [],
      "name": "name",
      "outputs": [
        {
          "internalType": "string",
          "name": "",
          "type": "string"
        }
      ],
      "stateMutability": "view",
      "type": "function"
    },
    {
      "inputs": [
        {
          "internalType": "bytes32",
          "name": "role",
          "type": "bytes32"
        },
        {
          "internalType": "address",
          "name": "callerConfirmation",
          "type": "address"
        }
      ],
      "name": "renounceRole",
      "outputs": [],
      "stateMutability": "nonpayable",
      "type": "function"
    },
    {
      "inputs": [
        {
          "internalType": "uint256",
          "name": "quantidade",
          "type": "uint256"
        },
        {
          "internalType": "string",
          "name": "motivo",
          "type": "string"
        }
      ],
      "name": "retire",
      "outputs": [],
      "stateMutability": "nonpayable",
      "type": "function"
    },
    {
      "inputs": [
        {
          "internalType": "bytes32",
          "name": "role",
          "type": "bytes32"
        },
        {
          "internalType": "address",
          "name": "account",
          "type": "address"
        }
      ],
      "name": "revokeRole",
      "outputs": [],
      "stateMutability": "nonpayable",
      "type": "function"
    },
    {
      "inputs": [
        {
          "internalType": "bytes32",
          "name": "lote_id",
          "type": "bytes32"
        },
        {
          "internalType": "string",
          "name": "vcu_id",
          "type": "string"
        }
      ],
      "name": "setVcuId",
      "outputs": [],
      "stateMutability": "nonpayable",
      "type": "function"
    },
    {
      "inputs": [
        {
          "internalType": "bytes4",
          "name": "interfaceId",
          "type": "bytes4"
        }
      ],
      "name": "supportsInterface",
      "outputs": [
        {
          "internalType": "bool",
          "name": "",
          "type": "bool"
        }
      ],
      "stateMutability": "view",
      "type": "function"
    },
    {
      "inputs": [],
      "name": "symbol",
      "outputs": [
        {
          "internalType": "string",
          "name": "",
          "type": "string"
        }
      ],
      "stateMutability": "view",
      "type": "function"
    },
    {
      "inputs": [],
      "name": "totalAposentado",
      "outputs": [
        {
          "internalType": "uint256",
          "name": "",
          "type": "uint256"
        }
      ],
      "stateMutability": "view",
      "type": "function"
    },
    {
      "inputs": [],
      "name": "totalSupply",
      "outputs": [
        {
          "internalType": "uint256",
          "name": "",
          "type": "uint256"
        }
      ],
      "stateMutability": "view",
      "type": "function"
    },
    {
      "inputs": [
        {
          "internalType": "address",
          "name": "to",
          "type": "address"
        },
        {
          "internalType": "uint256",
          "name": "value",
          "type": "uint256"
        }
      ],
      "name": "transfer",
      "outputs": [
        {
          "internalType": "bool",
          "name": "",
          "type": "bool"
        }
      ],
      "stateMutability": "nonpayable",
      "type": "function"
    },
    {
      "inputs": [
        {
          "internalType": "address",
          "name": "from",
          "type": "address"
        },
        {
          "internalType": "address",
          "name": "to",
          "type": "address"
        },
        {
          "internalType": "uint256",
          "name": "value",
          "type": "uint256"
        }
      ],
      "name": "transferFrom",
      "outputs": [
        {
          "internalType": "bool",
          "name": "",
          "type": "bool"
        }
      ],
      "stateMutability": "nonpayable",
      "type": "function"
    }
  ],
  "bytecode": "0x60806040523480156200001157600080fd5b5060405162001dee38038062001dee8339810160408190526200003491620001a5565b6040518060400160405280601881526020017f436172626f6e436861696e20524544442b2043726564697400000000000000008152506040518060400160405280600881526020016710d0d50b5491511160c21b81525081600390816200009c91906200027c565b506004620000ab82826200027c565b50620000bd91506000905082620000f2565b50620000ea7f9f2df0fed2c77648de5860a4cc508cd0818c85b8b8a1ab4ceeef8d981c8956a682620000f2565b505062000348565b60008281526005602090815260408083206001600160a01b038516845290915281205460ff166200019b5760008381526005602090815260408083206001600160a01b03861684529091529020805460ff19166001179055620001523390565b6001600160a01b0316826001600160a01b0316847f2f8788117e7eff1d82e926ec794901d17c78024a50270940304540a733656f0d60405160405180910390a45060016200019f565b5060005b92915050565b600060208284031215620001b857600080fd5b81516001600160a01b0381168114620001d057600080fd5b9392505050565b634e487b7160e01b600052604160045260246000fd5b600181811c908216806200020257607f821691505b6020821081036200022357634e487b7160e01b600052602260045260246000fd5b50919050565b601f8211156200027757600081815260208120601f850160051c81016020861015620002525750805b601f850160051c820191505b8181101562000273578281556001016200025e565b5050505b505050565b81516001600160401b03811115620002985762000298620001d7565b620002b081620002a98454620001ed565b8462000229565b602080601f831160018114620002e85760008415620002cf5750858301515b600019600386901b1c1916600185901b17855562000273565b600085815260208120601f198616915b828110156200031957888601518255948401946001909101908401620002f8565b5085821015620003385787850151600019600388901b60f8161c191681555b5050505050600190811b01905550565b611a9680620003586000396000f3fe608060405234801561001057600080fd5b50600436106101735760003560e01c80635f09ffbd116100de578063a217fddf11610097578063d539139311610071578063d539139314610359578063d547741f14610380578063dd62ed3e14610393578063f6b3e5f6146103cc57600080fd5b8063a217fddf1461032b578063a27cb75514610333578063a9059cbb1461034657600080fd5b80635f09ffbd1461029d5780635f9d83d8146102b05780636b057b7c146102c357806370a08231146102e757806391d148541461031057806395d89b411461032357600080fd5b80632e5559d9116101305780632e5559d9146102105780632f2ff15d14610230578063313ce5671461024557806336568abe146102545780633d412130146102675780634c66bd531461027a57600080fd5b806301ffc9a71461017857806306fdde03146101a0578063095ea7b3146101b557806318160ddd146101c857806323b872dd146101da578063248a9ca3146101ed575b600080fd5b61018b6101863660046112d5565b6103d5565b60405190151581526020015b60405180910390f35b6101a86103e6565b604051610197919061134c565b61018b6101c336600461137b565b610478565b6002545b604051908152602001610197565b61018b6101e83660046113a5565b610490565b6101cc6101fb3660046113e1565b60009081526005602052604090206001015490565b61022361021e366004611443565b6104b4565b6040516101979190611485565b61024361023e3660046114c9565b610527565b005b60405160128152602001610197565b6102436102623660046114c9565b610552565b6102436102753660046114f5565b61058a565b61028d6102883660046113e1565b61083f565b6040516101979493929190611585565b6102436102ab3660046115bd565b61090e565b6102436102be3660046115bd565b610b06565b6102d66102d13660046113e1565b610b92565b604051610197959493929190611609565b6101cc6102f536600461165b565b6001600160a01b031660009081526020819052604090205490565b61018b61031e3660046114c9565b610d58565b6101a8610d83565b6101cc600081565b6101cc61034136600461168c565b610d92565b61018b61035436600461137b565b610dd2565b6101cc7f9f2df0fed2c77648de5860a4cc508cd0818c85b8b8a1ab4ceeef8d981c8956a681565b61024361038e3660046114c9565b610de0565b6101cc6103a1366004611741565b6001600160a01b03918216600090815260016020908152604080832093909416825291909152205490565b6101cc60095481565b60006103e082610e05565b92915050565b6060600380546103f59061176b565b80601f01602080910402602001604051908101604052809291908181526020018280546104219061176b565b801561046e5780601f106104435761010080835404028352916020019161046e565b820191906000526020600020905b81548152906001019060200180831161045157829003601f168201915b5050505050905090565b600033610486818585610e3a565b5060019392505050565b60003361049e858285610e47565b6104a9858585610ec0565b506001949350505050565b6060600783836040516104c89291906117a5565b908152604080519182900360209081018320805480830285018301909352828452919083018282801561051a57602002820191906000526020600020905b815481526020019060010190808311610506575b5050505050905092915050565b60008281526005602052604090206001015461054281610f1f565b61054c8383610f2c565b50505050565b6001600160a01b038116331461057b5760405163334bd91960e11b815260040160405180910390fd5b6105858282610fc0565b505050565b7f9f2df0fed2c77648de5860a4cc508cd0818c85b8b8a1ab4ceeef8d981c8956a66105b481610f1f565b600082116106055760405162461bcd60e51b81526020600482015260196024820152784343542d524544443a207175616e746964616465207a65726f60381b60448201526064015b60405180910390fd5b60008787878760405160200161061e94939291906117b5565b60408051601f19818403018152918152815160209283012060008181526006909352912060040154909150156106965760405162461bcd60e51b815260206004820152601960248201527f4343542d524544443a206c6f7465206a61206d696e7461646f0000000000000060448201526064016105fc565b6040518060a0016040528089898080601f016020809104026020016040519081016040528093929190818152602001838380828437600092019190915250505090825250604080516020601f8a018190048102820181019092528881529181019190899089908190840183828082843760009201829052509385525050506020808301889052604080518083018252838152818501524260609094019390935284825260069052208151819061074c9082611825565b50602082015160018201906107619082611825565b5060408201516002820155606082015160038201906107809082611825565b5060808201518160040155905050600788886040516107a09291906117a5565b9081526040516020918190038201902080546001810182556000918252919020018190556107df896107da85670de0b6b3a76400006118fb565b61102d565b87876040516107ef9291906117a5565b60405180910390207f475bfd3110b808f2c0c58e91f758c482225ad5da50eb080b46e82be5674bbd3a8787878760405161082c949392919061193b565b60405180910390a2505050505050505050565b6008818154811061084f57600080fd5b60009182526020909120600490910201805460018201546002830180546001600160a01b0390931694509092916108859061176b565b80601f01602080910402602001604051908101604052809291908181526020018280546108b19061176b565b80156108fe5780601f106108d3576101008083540402835291602001916108fe565b820191906000526020600020905b8154815290600101906020018083116108e157829003601f168201915b5050505050908060030154905084565b6000831161095a5760405162461bcd60e51b81526020600482015260196024820152784343542d524544443a207175616e746964616465207a65726f60381b60448201526064016105fc565b61096c83670de0b6b3a76400006118fb565b3360009081526020819052604090205410156109ca5760405162461bcd60e51b815260206004820152601c60248201527f4343542d524544443a2073616c646f20696e737566696369656e74650000000060448201526064016105fc565b6109e5336109e085670de0b6b3a76400006118fb565b611067565b82600960008282546109f79190611962565b9091555050600880546040805160808101825233815260208082018890528251601f87018290048202810182018452868152939493919283019190879087908190840183828082843760009201829052509385525050426020938401525083546001808201865594825290829020835160049092020180546001600160a01b0319166001600160a01b03909216919091178155908201519281019290925560408101519091906002820190610aac9082611825565b50606082015181600301555050336001600160a01b03167fee0d02a5347cb055d58f0fdbff4fe7fe97f0caeba2334f45cc94b08afc173cea85858585604051610af89493929190611975565b60405180910390a250505050565b6000610b1181610f1f565b600084815260066020526040902060040154610b6f5760405162461bcd60e51b815260206004820152601a60248201527f4343542d524544443a206c6f746520696e6578697374656e746500000000000060448201526064016105fc565b6000848152600660205260409020600301610b8b8385836119a0565b5050505050565b600660205260009081526040902080548190610bad9061176b565b80601f0160208091040260200160405190810160405280929190818152602001828054610bd99061176b565b8015610c265780601f10610bfb57610100808354040283529160200191610c26565b820191906000526020600020905b815481529060010190602001808311610c0957829003601f168201915b505050505090806001018054610c3b9061176b565b80601f0160208091040260200160405190810160405280929190818152602001828054610c679061176b565b8015610cb45780601f10610c8957610100808354040283529160200191610cb4565b820191906000526020600020905b815481529060010190602001808311610c9757829003601f168201915b505050505090806002015490806003018054610ccf9061176b565b80601f0160208091040260200160405190810160405280929190818152602001828054610cfb9061176b565b8015610d485780601f10610d1d57610100808354040283529160200191610d48565b820191906000526020600020905b815481529060010190602001808311610d2b57829003601f168201915b5050505050908060040154905085565b60009182526005602090815260408084206001600160a01b0393909316845291905290205460ff1690565b6060600480546103f59061176b565b81516020818401810180516007825292820191850191909120919052805482908110610dbd57600080fd5b90600052602060002001600091509150505481565b600033610486818585610ec0565b600082815260056020526040902060010154610dfb81610f1f565b61054c8383610fc0565b60006001600160e01b03198216637965db0b60e01b14806103e057506301ffc9a760e01b6001600160e01b03198316146103e0565b610585838383600161109d565b6001600160a01b0383811660009081526001602090815260408083209386168352929052205460001981101561054c5781811015610eb157604051637dc7a0d960e11b81526001600160a01b038416600482015260248101829052604481018390526064016105fc565b61054c8484848403600061109d565b6001600160a01b038316610eea57604051634b637e8f60e11b8152600060048201526024016105fc565b6001600160a01b038216610f145760405163ec442f0560e01b8152600060048201526024016105fc565b610585838383611172565b610f29813361129c565b50565b6000610f388383610d58565b610fb85760008381526005602090815260408083206001600160a01b03861684529091529020805460ff19166001179055610f703390565b6001600160a01b0316826001600160a01b0316847f2f8788117e7eff1d82e926ec794901d17c78024a50270940304540a733656f0d60405160405180910390a45060016103e0565b5060006103e0565b6000610fcc8383610d58565b15610fb85760008381526005602090815260408083206001600160a01b0386168085529252808320805460ff1916905551339286917ff6391f5c32d9c69d2a47ea670b442974b53935d1edc7fd64eb21e047a839171b9190a45060016103e0565b6001600160a01b0382166110575760405163ec442f0560e01b8152600060048201526024016105fc565b61106360008383611172565b5050565b6001600160a01b03821661109157604051634b637e8f60e11b8152600060048201526024016105fc565b61106382600083611172565b6001600160a01b0384166110c75760405163e602df0560e01b8152600060048201526024016105fc565b6001600160a01b0383166110f157604051634a1406b160e11b8152600060048201526024016105fc565b6001600160a01b038085166000908152600160209081526040808320938716835292905220829055801561054c57826001600160a01b0316846001600160a01b03167f8c5be1e5ebec7d5bd14f71427d1e84f3dd0314c0f7b2291e5b200ac8c7c3b9258460405161116491815260200190565b60405180910390a350505050565b6001600160a01b03831661119d5780600260008282546111929190611962565b9091555061120f9050565b6001600160a01b038316600090815260208190526040902054818110156111f05760405163391434e360e21b81526001600160a01b038516600482015260248101829052604481018390526064016105fc565b6001600160a01b03841660009081526020819052604090209082900390555b6001600160a01b03821661122b5760028054829003905561124a565b6001600160a01b03821660009081526020819052604090208054820190555b816001600160a01b0316836001600160a01b03167fddf252ad1be2c89b69c2b068fc378daa952ba7f163c4a11628f55a4df523b3ef8360405161128f91815260200190565b60405180910390a3505050565b6112a68282610d58565b6110635760405163e2517d3f60e01b81526001600160a01b0382166004820152602481018390526044016105fc565b6000602082840312156112e757600080fd5b81356001600160e01b0319811681146112ff57600080fd5b9392505050565b6000815180845260005b8181101561132c57602081850181015186830182015201611310565b506000602082860101526020601f19601f83011685010191505092915050565b6020815260006112ff6020830184611306565b80356001600160a01b038116811461137657600080fd5b919050565b6000806040838503121561138e57600080fd5b6113978361135f565b946020939093013593505050565b6000806000606084860312156113ba57600080fd5b6113c38461135f565b92506113d16020850161135f565b9150604084013590509250925092565b6000602082840312156113f357600080fd5b5035919050565b60008083601f84011261140c57600080fd5b50813567ffffffffffffffff81111561142457600080fd5b60208301915083602082850101111561143c57600080fd5b9250929050565b6000806020838503121561145657600080fd5b823567ffffffffffffffff81111561146d57600080fd5b611479858286016113fa565b90969095509350505050565b6020808252825182820181905260009190848201906040850190845b818110156114bd578351835292840192918401916001016114a1565b50909695505050505050565b600080604083850312156114dc57600080fd5b823591506114ec6020840161135f565b90509250929050565b600080600080600080600060a0888a03121561151057600080fd5b6115198861135f565b9650602088013567ffffffffffffffff8082111561153657600080fd5b6115428b838c016113fa565b909850965060408a013591508082111561155b57600080fd5b506115688a828b016113fa565b989b979a5095989597966060870135966080013595509350505050565b60018060a01b03851681528360208201526080604082015260006115ac6080830185611306565b905082606083015295945050505050565b6000806000604084860312156115d257600080fd5b83359250602084013567ffffffffffffffff8111156115f057600080fd5b6115fc868287016113fa565b9497909650939450505050565b60a08152600061161c60a0830188611306565b828103602084015261162e8188611306565b905085604084015282810360608401526116488186611306565b9150508260808301529695505050505050565b60006020828403121561166d57600080fd5b6112ff8261135f565b634e487b7160e01b600052604160045260246000fd5b6000806040838503121561169f57600080fd5b823567ffffffffffffffff808211156116b757600080fd5b818501915085601f8301126116cb57600080fd5b8135818111156116dd576116dd611676565b604051601f8201601f19908116603f0116810190838211818310171561170557611705611676565b8160405282815288602084870101111561171e57600080fd5b826020860160208301376000602093820184015298969091013596505050505050565b6000806040838503121561175457600080fd5b61175d8361135f565b91506114ec6020840161135f565b600181811c9082168061177f57607f821691505b60208210810361179f57634e487b7160e01b600052602260045260246000fd5b50919050565b8183823760009101908152919050565b8385823760008482016000815283858237600093019283525090949350505050565b601f82111561058557600081815260208120601f850160051c810160208610156117fe5750805b601f850160051c820191505b8181101561181d5782815560010161180a565b505050505050565b815167ffffffffffffffff81111561183f5761183f611676565b6118538161184d845461176b565b846117d7565b602080601f83116001811461188857600084156118705750858301515b600019600386901b1c1916600185901b17855561181d565b600085815260208120601f198616915b828110156118b757888601518255948401946001909101908401611898565b50858210156118d55787850151600019600388901b60f8161c191681555b5050505050600190811b01905550565b634e487b7160e01b600052601160045260246000fd5b80820281158282048414176103e0576103e06118e5565b81835281816020850137506000828201602090810191909152601f909101601f19169091010190565b60608152600061194f606083018688611912565b6020830194909452506040015292915050565b808201808211156103e0576103e06118e5565b84815260606020820152600061198f606083018587611912565b905082604083015295945050505050565b67ffffffffffffffff8311156119b8576119b8611676565b6119cc836119c6835461176b565b836117d7565b6000601f841160018114611a0057600085156119e85750838201355b600019600387901b1c1916600186901b178355610b8b565b600083815260209020601f19861690835b82811015611a315786850135825560209485019460019092019101611a11565b5086821015611a4e5760001960f88860031b161c19848701351681555b505060018560011b018355505050505056fea264697066735822122094f1d6819918e5e5b7927bc24ded0d42569e7db421ef1ba247c6de1f496bc09164736f6c63430008140033",
  "linkReferences": {},
  "deployedLinkReferences": {}
}