{
  "_format": "hh-sol-artifact-1",
  "contractName": "CCTFactory",
  "sourceName": "contracts/CCTFactory.sol",
  "abi": [
    {
      "inputs": [
        {
          "internalType": "address",
          "name": "_cctSoil",
          "type": "address"
        },
        {
          "internalType": "address",
          "name": "_cctRedd",
          "type": "address"
        },
        {
          "internalType": "address",
          "name": "_cctArr",
          "type": "address"
        },
        {
          "internalType": "address",
          "name": "_cartesiRollup",
          "type": "address"
        },
        {
          "internalType": "address",
          "name": "_tesouraria",
          "type": "address"
        }
      ],
      "stateMutability": "nonpayable",
      "type": "constructor"
    },
    {
      "inputs": [
        {
          "internalType": "address",
          "name": "owner",
          "type": "address"
        }
      ],
      "name": "OwnableInvalidOwner",
      "type": "error"
    },
    {
      "inputs": [
        {
          "internalType": "address",
          "name": "account",
          "type": "address"
        }
      ],
      "name": "OwnableUnauthorizedAccount",
      "type": "error"
    },
    {
      "inputs": [],
      "name": "ReentrancyGuardReentrantCall",
      "type": "error"
    },
    {
      "anonymous": false,
      "inputs": [
        {
          "indexed": true,
          "internalType": "address",
          "name": "anterior",
          "type": "address"
        },
        {
          "indexed": true,
          "internalType": "address",
          "name": "novo",
          "type": "address"
        }
      ],
      "name": "CartesiRollupAtualizado",
      "type": "event"
    },
    {
      "anonymous": false,
      "inputs": [
        {
          "indexed": true,
          "internalType": "string",
          "name": "cpa_id",
          "type": "string"
        },
        {
          "indexed": false,
          "internalType": "string",
          "name": "periodo",
          "type": "string"
        },
        {
          "indexed": false,
          "internalType": "bytes32",
          "name": "hash_mrv",
          "type": "bytes32"
        },
        {
          "indexed": false,
          "internalType": "uint256",
          "name": "vcus_soil",
          "type": "uint256"
        },
        {
          "indexed": false,
          "internalType": "uint256",
          "name": "vcus_redd",
          "type": "uint256"
        },
        {
          "indexed": false,
          "internalType": "uint256",
          "name": "vcus_arr",
          "type": "uint256"
        }
      ],
      "name": "MintRealizado",
      "type": "event"
    },
    {
      "anonymous": false,
      "inputs": [
        {
          "indexed": true,
          "internalType": "address",
          "name": "previousOwner",
          "type": "address"
        },
        {
          "indexed": true,
          "internalType": "address",
          "name": "newOwner",
          "type": "address"
        }
      ],
      "name": "OwnershipTransferred",
      "type": "event"
    },
    {
      "anonymous": false,
      "inputs": [
        {
          "indexed": true,
          "internalType": "address",
          "name": "anterior",
          "type": "address"
        },
        {
          "indexed": true,
          "internalType": "address",
          "name": "nova",
          "type": "address"
        }
      ],
      "name": "TesourariaAtualizada",
      "type": "event"
    },
    {
      "inputs": [],
      "name": "cartesiRollup",
      "outputs": [
        {
          "internalType": "address",
          "name": "",
          "type": "address"
        }
      ],
      "stateMutability": "view",
      "type": "function"
    },
    {
      "inputs": [],
      "name": "cctArr",
      "outputs": [
        {
          "internalType": "contract CCTArr",
          "name": "",
          "type": "address"
        }
      ],
      "stateMutability": "view",
      "type": "function"
    },
    {
      "inputs": [],
      "name": "cctRedd",
      "outputs": [
        {
          "internalType": "contract CCTRedd",
          "name": "",
          "type": "address"
        }
      ],
      "stateMutability": "view",
      "type": "function"
    },
    {
      "inputs": [],
      "name": "cctSoil",
      "outputs": [
        {
          "internalType": "contract CCTSoil",
          "name": "",
          "type": "address"
        }
      ],
      "stateMutability": "view",
      "type": "function"
    },
    {
      "inputs": [
        {
          "internalType": "string",
          "name": "cpa_id",
          "type": "string"
        },
        {
          "internalType": "string",
          "name": "periodo",
          "type": "string"
        }
      ],
      "name": "loteJaMintado",
      "outputs": [
        {
          "internalType": "bool",
          "name": "",
          "type": "bool"
        }
      ],
      "stateMutability": "view",
      "type": "function"
    },
    {
      "inputs": [
        {
          "internalType": "string",
          "name": "cpa_id",
          "type": "string"
        },
        {
          "internalType": "string",
          "name": "periodo",
          "type": "string"
        },
        {
          "internalType": "bytes32",
          "name": "hash_mrv",
          "type": "bytes32"
        },
        {
          "internalType": "uint256",
          "name": "vcus_soil",
          "type": "uint256"
        },
        {
          "internalType": "uint256",
          "name": "vcus_redd",
          "type": "uint256"
        },
        {
          "internalType": "uint256",
          "name": "vcus_arr",
          "type": "uint256"
        }
      ],
      "name": "mintFromVoucher",
      "outputs": [],
      "stateMutability": "nonpayable",
      "type": "function"
    },
    {
      "inputs": [
        {
          "internalType": "bytes32",
          "name": "",
          "type": "bytes32"
        }
      ],
      "name": "mintRealizado",
      "outputs": [
        {
          "internalType": "bool",
          "name": "",
          "type": "bool"
        }
      ],
      "stateMutability": "view",
      "type": "function"
    },
    {
      "inputs": [],
      "name": "owner",
      "outputs": [
        {
          "internalType": "address",
          "name": "",
          "type": "address"
        }
      ],
      "stateMutability": "view",
      "type": "function"
    },
    {
      "inputs": [],
      "name": "renounceOwnership",
      "outputs": [],
      "stateMutability": "nonpayable",
      "type": "function"
    },
    {
      "inputs": [],
      "name": "saldoTesouraria",
      "outputs": [
        {
          "internalType": "uint256",
          "name": "soil",
          "type": "uint256"
        },
        {
          "internalType": "uint256",
          "name": "redd",
          "type": "uint256"
        },
        {
          "internalType": "uint256",
          "name": "arr",
          "type": "uint256"
        }
      ],
      "stateMutability": "view",
      "type": "function"
    },
    {
      "inputs": [
        {
          "internalType": "address",
          "name": "novo",
          "type": "address"
        }
      ],
      "name": "setCartesiRollup",
      "outputs": [],
      "stateMutability": "nonpayable",
      "type": "function"
    },
    {
      "inputs": [
        {
          "internalType": "address",
          "name": "nova",
          "type": "address"
        }
      ],
      "name": "setTesouraria",
      "outputs": [],
      "stateMutability": "nonpayable",
      "type": "function"
    },
    {
      "inputs": [],
      "name": "tesouraria",
      "outputs": [
        {
          "internalType": "address",
          "name": "",
          "type": "address"
        }
      ],
      "stateMutability": "view",
      "type": "function"
    },
    {
      "inputs": [],
      "name": "totalMints",
      "outputs": [
        {
          "internalType": "uint256",
          "name": "",
          "type": "uint256"
        }
      ],
      "stateMutability": "view",
      "type": "function"
    },
    {
      "inputs": [],
      "name": "totalVCUsMintados",
      "outputs": [
        {
          "internalType": "uint256",
          "name": "",
          "type": "uint256"
        }
      ],
      "stateMutability": "view",
      "type": "function"
    },
    {
      "inputs": [
        {
          "internalType": "address",
          "name": "newOwner",
          "type": "address"
        }
      ],
      "name": "transferOwnership",
      "outputs": [],
      "stateMutability": "nonpayable",
      "type": "function"
    }
  ],
  "bytecode": "0x60e06040523480156200001157600080fd5b5060405162001367380380620013678339810160408190526200003491620002f4565b33806200005c57604051631e4fbdf760e01b8152600060048201526024015b60405180910390fd5b620000678162000287565b5060017f9b779b17422d0df92223018b32b4d1fa46e071723d6817e2486d003becc55f00556001600160a01b038516620000e45760405162461bcd60e51b815260206004820152601560248201527f434354466163746f72793a20736f696c207a65726f0000000000000000000000604482015260640162000053565b6001600160a01b0384166200013c5760405162461bcd60e51b815260206004820152601560248201527f434354466163746f72793a2072656464207a65726f0000000000000000000000604482015260640162000053565b6001600160a01b038316620001945760405162461bcd60e51b815260206004820152601460248201527f434354466163746f72793a20617272207a65726f000000000000000000000000604482015260640162000053565b6001600160a01b038216620001ec5760405162461bcd60e51b815260206004820152601760248201527f434354466163746f72793a20726f6c6c7570207a65726f000000000000000000604482015260640162000053565b6001600160a01b038116620002445760405162461bcd60e51b815260206004820152601b60248201527f434354466163746f72793a207465736f757261726961207a65726f0000000000604482015260640162000053565b6001600160a01b0394851660805292841660a05290831660c052600180549184166001600160a01b03199283161790556002805492909316911617905562000364565b600080546001600160a01b038381166001600160a01b0319831681178455604051919092169283917f8be0079c531659141344cd1fd0a4f28419497f9722a3daafe3b4186f6b6457e09190a35050565b80516001600160a01b0381168114620002ef57600080fd5b919050565b600080600080600060a086880312156200030d57600080fd5b6200031886620002d7565b94506200032860208701620002d7565b93506200033860408701620002d7565b92506200034860608701620002d7565b91506200035860808701620002d7565b90509295509295909350565b60805160a05160c051610fa9620003be6000396000818161021a0152818161042c015261085201526000818161019d0152818161038601526107ba01526000818161028b015281816102e001526107220152610fa96000f3fe608060405234801561001057600080fd5b50600436106101005760003560e01c80637c81fb3711610097578063964e900611610066578063964e90061461024d578063de3e959114610260578063f2fde38b14610273578063f5c562c91461028657600080fd5b80637c81fb37146101df57806386264a25146101f257806387d2069c146102155780638da5cb5b1461023c57600080fd5b8063273c236e116100d3578063273c236e146101625780634fb4650614610185578063520679cf14610198578063715018a6146101d757600080fd5b806304fc9ba3146101055780630b8f1cfe1461012d5780631f21bfbf146101445780631fd05ac31461014d575b600080fd5b61010d6102ad565b604080519384526020840192909252908201526060015b60405180910390f35b61013660055481565b604051908152602001610124565b61013660045481565b61016061015b366004610cc9565b6104aa565b005b610175610170366004610d58565b610998565b6040519015158152602001610124565b610160610193366004610dc4565b6109e7565b6101bf7f000000000000000000000000000000000000000000000000000000000000000081565b6040516001600160a01b039091168152602001610124565b610160610a94565b6101606101ed366004610dc4565b610aa8565b610175610200366004610df4565b60036020526000908152604090205460ff1681565b6101bf7f000000000000000000000000000000000000000000000000000000000000000081565b6000546001600160a01b03166101bf565b6001546101bf906001600160a01b031681565b6002546101bf906001600160a01b031681565b610160610281366004610dc4565b610b55565b6101bf7f000000000000000000000000000000000000000000000000000000000000000081565b6002546040516370a0823160e01b81526001600160a01b03918216600482015260009182918291670de0b6b3a7640000917f0000000000000000000000000000000000000000000000000000000000000000909116906370a0823190602401602060405180830381865afa158015610329573d6000803e3d6000fd5b505050506040513d601f19601f8201168201806040525081019061034d9190610e0d565b6103579190610e3c565b6002546040516370a0823160e01b81526001600160a01b039182166004820152919450670de0b6b3a7640000917f0000000000000000000000000000000000000000000000000000000000000000909116906370a0823190602401602060405180830381865afa1580156103cf573d6000803e3d6000fd5b505050506040513d601f19601f820116820180604052508101906103f39190610e0d565b6103fd9190610e3c565b6002546040516370a0823160e01b81526001600160a01b039182166004820152919350670de0b6b3a7640000917f0000000000000000000000000000000000000000000000000000000000000000909116906370a0823190602401602060405180830381865afa158015610475573d6000803e3d6000fd5b505050506040513d601f19601f820116820180604052508101906104999190610e0d565b6104a39190610e3c565b9050909192565b6001546001600160a01b031633146105145760405162461bcd60e51b815260206004820152602260248201527f434354466163746f72793a20736f6d656e7465204361727465736920526f6c6c604482015261075760f41b60648201526084015b60405180910390fd5b61051c610b93565b6000816105298486610e5e565b6105339190610e5e565b116105785760405162461bcd60e51b8152602060048201526015602482015274434354466163746f72793a207a65726f205643557360581b604482015260640161050b565b866105c55760405162461bcd60e51b815260206004820152601860248201527f434354466163746f72793a206370615f69642076617a696f0000000000000000604482015260640161050b565b846106125760405162461bcd60e51b815260206004820152601960248201527f434354466163746f72793a20706572696f646f2076617a696f00000000000000604482015260640161050b565b836106585760405162461bcd60e51b8152602060048201526016602482015275434354466163746f72793a20686173682076617a696f60501b604482015260640161050b565b6000888888886040516020016106719493929190610e77565b60408051601f1981840301815291815281516020928301206000818152600390935291205490915060ff16156106e95760405162461bcd60e51b815260206004820152601b60248201527f434354466163746f72793a206c6f7465206a61206d696e7461646f0000000000604482015260640161050b565b6000818152600360205260409020805460ff19166001179055831561079a576002546040516303d4121360e41b81526001600160a01b037f0000000000000000000000000000000000000000000000000000000000000000811692633d412130926107679291909116908d908d908d908d908d908d90600401610ec2565b600060405180830381600087803b15801561078157600080fd5b505af1158015610795573d6000803e3d6000fd5b505050505b8215610832576002546040516303d4121360e41b81526001600160a01b037f0000000000000000000000000000000000000000000000000000000000000000811692633d412130926107ff9291909116908d908d908d908d908d908c90600401610ec2565b600060405180830381600087803b15801561081957600080fd5b505af115801561082d573d6000803e3d6000fd5b505050505b81156108ca576002546040516303d4121360e41b81526001600160a01b037f0000000000000000000000000000000000000000000000000000000000000000811692633d412130926108979291909116908d908d908d908d908d908b90600401610ec2565b600060405180830381600087803b1580156108b157600080fd5b505af11580156108c5573d6000803e3d6000fd5b505050505b600480549060006108da83610f11565b909155508290506108eb8486610e5e565b6108f59190610e5e565b600560008282546109069190610e5e565b909155505060405161091b908a908a90610f2a565b60405180910390207f19cc106fdfbae4e2b1c9e1816299056ccdf68fd3ed875725eb9f1bb6db236b4f88888888888860405161095c96959493929190610f3a565b60405180910390a25061098e60017f9b779b17422d0df92223018b32b4d1fa46e071723d6817e2486d003becc55f0055565b5050505050505050565b600060036000868686866040516020016109b59493929190610e77565b60408051808303601f190181529181528151602092830120835290820192909252016000205460ff1695945050505050565b6109ef610bc1565b6001600160a01b038116610a385760405162461bcd60e51b815260206004820152601060248201526f434354466163746f72793a207a65726f60801b604482015260640161050b565b6002546040516001600160a01b038084169216907f4926c32b2451a675f610e760dbb9fa343b36d6dfa1e7d0c13a6d80687ca4a2d790600090a3600280546001600160a01b0319166001600160a01b0392909216919091179055565b610a9c610bc1565b610aa66000610bee565b565b610ab0610bc1565b6001600160a01b038116610af95760405162461bcd60e51b815260206004820152601060248201526f434354466163746f72793a207a65726f60801b604482015260640161050b565b6001546040516001600160a01b038084169216907fe8a271e60ac8f2c52b455bf724e2f22f42d413d930466b7823d5eba086f195c690600090a3600180546001600160a01b0319166001600160a01b0392909216919091179055565b610b5d610bc1565b6001600160a01b038116610b8757604051631e4fbdf760e01b81526000600482015260240161050b565b610b9081610bee565b50565b610b9b610c3e565b60027f9b779b17422d0df92223018b32b4d1fa46e071723d6817e2486d003becc55f0055565b6000546001600160a01b03163314610aa65760405163118cdaa760e01b815233600482015260240161050b565b600080546001600160a01b038381166001600160a01b0319831681178455604051919092169283917f8be0079c531659141344cd1fd0a4f28419497f9722a3daafe3b4186f6b6457e09190a35050565b7f9b779b17422d0df92223018b32b4d1fa46e071723d6817e2486d003becc55f0054600203610aa657604051633ee5aeb560e01b815260040160405180910390fd5b60008083601f840112610c9257600080fd5b50813567ffffffffffffffff811115610caa57600080fd5b602083019150836020828501011115610cc257600080fd5b9250929050565b60008060008060008060008060c0898b031215610ce557600080fd5b883567ffffffffffffffff80821115610cfd57600080fd5b610d098c838d01610c80565b909a50985060208b0135915080821115610d2257600080fd5b50610d2f8b828c01610c80565b999c989b5099604081013598606082013598506080820135975060a09091013595509350505050565b60008060008060408587031215610d6e57600080fd5b843567ffffffffffffffff80821115610d8657600080fd5b610d9288838901610c80565b90965094506020870135915080821115610dab57600080fd5b50610db887828801610c80565b95989497509550505050565b600060208284031215610dd657600080fd5b81356001600160a01b0381168114610ded57600080fd5b9392505050565b600060208284031215610e0657600080fd5b5035919050565b600060208284031215610e1f57600080fd5b5051919050565b634e487b7160e01b600052601160045260246000fd5b600082610e5957634e487b7160e01b600052601260045260246000fd5b500490565b80820180821115610e7157610e71610e26565b92915050565b8385823760008482016000815283858237600093019283525090949350505050565b81835281816020850137506000828201602090810191909152601f909101601f19169091010190565b6001600160a01b038816815260a060208201819052600090610ee7908301888a610e99565b8281036040840152610efa818789610e99565b606084019590955250506080015295945050505050565b600060018201610f2357610f23610e26565b5060010190565b8183823760009101908152919050565b60a081526000610f4e60a08301888a610e99565b905085602083015284604083015283606083015282608083015297965050505050505056fea2646970667358221220a623dd30cfe7303366c9a78e51fa534e44e16316a8fa374572e01f1796c1444464736f6c63430008140033",
  "linkReferences": {},
  "deployedLinkReferences": {}
}